:1000000000308A00292800000A108A100A1182078D
:100010000C340634033409340A108A100A1182079A
:100020000934033406340C3422308400831300086E
:10003000031928280130F800F701F70B1D28F80BE9
:100040001C284A30F700F70B23282628800B1A2893
:100050000034840183131F308305831603170908B6
:10006000C039890003131F129F1200300317880044
:100070008312870188018901FF300313A100FF303B
:10008000831687008312A100003083168600831236
:10009000071C5B28A0012008033C031C5A28071CEE
:1000A0005A2820080420F80086006430A20014209A
:1000B000A00A4B286B28A0012008033C031C6B28D6
:1000C00007186B2820080C20F80086006430A20076
:0A00D0001420A00A5C2848286300F1
:04400E00E12CFF3969
:00000001FF
;PIC16F886
