:1000000000308A00292800000A108A100A1182078D
:1000100008340434023401340A108A100A118207A9
:10002000013402340434083423308400831300087C
:10003000031928280130F800F701F70B1D28F80BE9
:100040001C284A30F700F70B23282628800B1A2893
:100050000034840183131F308305831603170908B6
:10006000C039890003131F129F1200300317880044
:100070008312870188018901FF300313A100FF303B
:10008000831687008312A100003083168600831236
:10009000071C5D28A0012008033C031C5C282008E5
:1000A0000420F80086000230A200FA30A3001420D9
:1000B000A20B5528A00A4B2848288601871C7328C4
:1000C000A0012008033C031C722820080C20F80023
:1000D00086000230A200FA30A3001420A20B6B2885
:0C00E000A00A61285E2886014828630001
:04400E00E12CFF3969
:00000001FF
;PIC16F886
