:1000000000308A0086280000FF00030E8301A10053
:100010000A08A0008A010408A2007708A300780853
:10002000A4007908A5007A08A6007B08A70083131E
:1000300083128B1E1D280B193028220884002308E8
:10004000F7002408F8002508F9002608FA00270818
:10005000FB0020088A00210E8300FF0E7F0E09009E
:100060008A110A1241280A108A100A1182073F34A5
:1000700006345B344F3466346D347D3407347F345A
:100080006734AB03EE308100AB08031D4A28AC0A8D
:10009000D930AB000B118A110A121D282E308400B2
:1000A00083130008031962280130F800F701F70BE9
:1000B0005728F80B56284A30F700F70B5D286028C0
:1000C000800B542800342C08AA00A801A9012A0892
:1000D000093C03186F280A30AA02A90A67282A08CF
:1000E000A8000714871028083320F8008600013084
:1000F000AE004E208714071029083320F800860030
:100100000130AE004E208A110A12CC2884018313DC
:100110001F308305831603170908C03989000313AC
:100120001F129F1200300317880083128701880175
:100130008901FF300313AD0000308316860087006D
:100140008312AD00A801A901D930AB00AC01EE309B
:100150008100031705100730F700F71DBA28073094
:10016000031381018130840083130008C0390F38E4
:10017000800003176400813084000008C0397704D0
:10018000800003138B16C0308B042C083C3C031DED
:0C019000CB28AC01CC286328C5286300F4
:04400E00E12CFF3F63
:00000001FF
;PIC16F886
