:1000000000308A0060280000FF00030E8301A10079
:100010000A08A0008A010408A2007708A300780853
:10002000A4007908A5007A08A6007B08A70083131E
:1000300083120B1E1D288B183028220884002308E9
:10004000F7002408F8002508F9002608FA00270818
:10005000FB0020088A00210E8300FF0E7F0E09009E
:100060008A110A1241280A108A100A1182073F34A5
:1000700006345B344F3466346D347D3407347F345A
:100080006734C830AA002A3084008313000803199B
:1000900057280130F800F701F70B4C28F80B4B28D4
:1000A0004A30F700F70B52285528800B4928A80A38
:1000B00028080A3C0319A8018B108A110A121D286E
:1000C000840183131F308305831603170908C03981
:1000D000890003131F129F12003003178800831238
:1000E0008701880189010313A801FF30A900FF30AF
:1000F00083168600003087008312A900C0308B046D
:0E0100000B1628083320F800870081286300C2
:04400E00E12FFF3F60
:00000001FF
;PIC16F886
