:1000000000308A006E2800000A108A100A11820748
:100010003F3406345B344F3466346D347D340734FA
:100020007F3467342708F801260203181A282608A7
:10003000F7002628F7010830A800A60DF70D2708BD
:1000400077020318F700F80DA80B1D28003426309E
:1000500084008313000803193B280130F800F701DE
:10006000F70B3028F80B2F284A30F700F70B36280B
:100070003928800B2D2800340130A200F430A10073
:10008000A108031D4628A20803196B282008A60012
:100090000A30A70012207808A5002008A6000A3020
:1000A000A70012207708A400071087142408042052
:1000B000F80086000130A6002720871007142508C5
:1000C0000420F80086000130A6002720210803192B
:1000D000A203A10340288A110A12922884018313E3
:1000E0001F308305831603170908C03989000313DD
:1000F0001F129F12003003178800831287018801A6
:100100008901FF300313A300003083168600FC3002
:1001100087008312A300A001A0012008633C031CF8
:0C01200094283C28A00A8D288C2863003D
:04400E00E12CFF3F63
:00000001FF
;PIC16F886
