:1000000000308A00062B00000A108A100A118207AD
:1000100028340C34013406340A108A100A1182077D
:10002000313432343334343435343634373438348C
:1000300039342A34303423340A108A100A118207E2
:1000400044344934473449345434413444344F34CB
:100050003A342034203420342034203420342034E6
:1000600000340A108A100A1182075234453443348E
:100070005534503445345234413444344F343A3496
:100080002034203420342034203400342A308400BA
:100090008313000803195A280130F800F701F70B01
:1000A0004F28F80B4E284A30F700F70B55285828F0
:1000B000800B4C280034310EF039F7000F30060564
:1000C00077048600000006146528061000348610A8
:1000D000F030831686008312061500000614000017
:1000E0000608060E0F39B1000610000006140000C5
:1000F0000608060E0F39B000061000308316860081
:100100008312310EF700F030F70577083004F8005D
:100110007808B000B01B68282E1C86102E18861494
:1001200000000611000006102F0EB0000F30B005C1
:100130003008B1005B202F080F39B000B1005B2000
:1001400000340030831686008312861006110610D4
:100150000F30AA0046200130A8002808033C031CE9
:10016000B9280330B1005B200530AA004620A80A58
:10017000AD280230B1005B20A8012808033C031C15
:10018000CA2828080420A900AE012908AF0067206A
:10019000A80ABD288A110A122A2B8A110A122B2BAF
:1001A000A4152408831687008312241624088316B6
:1001B000870083128A110A122C2B2B0BE028E328CC
:1001C0004030AC00E428AC0101302A02AC072C0816
:1001D0008038AD00AE012D08AF006720003429083B
:1001E0000C3A0319FA28063A03190229023A0319AC
:1001F00008290D29AE010130AF0067200230AA00A6
:10020000462013290130AA000230AB00DD2013295B
:10021000AE011030AF00672013290130AE0029086D
:10022000AF00672013290034A801A00A2008213C50
:1002300003189629230803192429013A03192A29A6
:10024000033A031930293629DE30831686008312DB
:1002500086003629BE308316860083128600362932
:100260007E3083168600831286003629211C42299F
:1002700006081E391E3C031D412921102208A80032
:10028000A201952906081E391E3C0319902906086B
:100290000239031D4D29A901612906080439031DEE
:1002A00054290130A900612906080839031D5B297A
:1002B0000230A900612906081039031D61290330A5
:1002C000A9002908AA000330AB00F701F8012A08A9
:1002D00003102B18F707F70CF80CAB18F707F70CFF
:1002E000F80C2B19F707F70CF80CAB19F707F70CFC
:1002F000F80C2B1AF707F70CF80CAB1AF707F70CEA
:10030000F80C2B1BF707F70CF80CAB1BF707F70CD7
:10031000F80C230878070C20F800A2002114952976
:10032000A30A2308033C0319A301A001FE3083168E
:10033000860083122808F8008A110A12522B08300E
:10034000F80000008711A41124088316870000001C
:100350008312AB0D0712031CB3292416240883163D
:100360008700B7298312241224088316870000000F
:100370008312A4152408831687008312871DBE29C3
:10038000F80BA12900008711A41124088316870007
:100390000000831224162408831687000000000042
:1003A0008312A4152408831687008312871DD6297B
:1003B000F8010000071A78148711A4112408831685
:1003C00087008312071224122408831687008312E1
:1003D0000034241624088316870000008312A41515
:1003E00024088316870000008312071224122408B1
:1003F00083168700000083128711A4112408831636
:100400008700A0308312AB009F2178082A1078184B
:100410002A14241224088316870000008312A415CE
:100420002408831687008312871D142A0000182AC7
:100430000000241624088316870000000030831271
:100440002A1C0130F8000034E921F8080319242A95
:10045000241624088316870000008312A41524089C
:1004600083168700000083120712241224088316C3
:100470008700000083128711A411240883168700C7
:10048000A0308312AB009F212808AB009F212908D0
:10049000AB009F21241224088316870000008312DA
:1004A000A4152408831687008312871D552A00008F
:1004B000592A00002416240883168700000083129E
:1004C0008A110A125F2BE921F8080319632A2416FE
:1004D00024088316870000008312A41524088316BD
:1004E0008700000083120712241224088316870055
:1004F000000083128711A411240883168700A030FE
:100500008312AB009F212808AB009F2124162408EA
:100510008316870000008312A41524088316870021
:1005200000008312871D922A0712241224088316C2
:100530008700000083128711A41124088316870006
:10054000A1308312AB009F21F7010830AB00770880
:10055000AC00241624088316870000008312A4151B
:100560002408831687008312871DB42A071A0314F0
:10057000071E0310F80D0000A4112408831687003D
:1005800083128711AB0BA92A24162408831687002F
:100590000000831207122C080319D32A24122408FE
:1005A0008316870083120000A41524088316870091
:1005B0008312871DD92A00008711A41124088316ED
:1005C0008700000083120712241224088316870074
:1005D00078088312A90024122408831687000000DB
:1005E0008312A4152408831687008312871DF62A18
:1005F0000000FA2A00002416240883168700000051
:1006000083122908F8008A110A128F2B84018313A0
:100610001F308305831603170908C03989000313A7
:100620001F129F1200300317880083128701880170
:1006300089010313A0012110A201A301FF30A4002E
:100640001030A6000130831695008113FF3095000D
:100650008312A128CD28D0280C30A6002608013C02
:100660000318462B2608AA000130AB00DD20A801A4
:1006700028081C2000380319412BA80AA900EF20E4
:10068000382B6430AA004620A6032E2B0C30AA007B
:100690000130AB00DD20A7012708033C031C612BC0
:1006A000A50114297808A500A5080319602B2508C1
:1006B000A900EF202708A8002508A900242AA70AD6
:1006C0004C2B0230A800FA30AA004620A80B632B5E
:1006D0000C30A6002608013C0318822B2608AA002D
:1006E0000230AB00DD20A8012808312000380319B2
:1006F0007D2BA80AA900EF20742B6430AA004620A5
:10070000A6036A2B0D30AA000230AB00DD20A70142
:100710002708033C031C962B2708A800632A7808A7
:0E072000A5002508A900EF20A70A882B63007A
:04400E00E12CFF3969
:00000001FF
;PIC16F886
