:1000000000308A005F2800000A108A100A11820757
:100010003F3406345B344F3466346D347D340734FA
:100020007F3467342508F801240203181A282408AD
:10003000F7002628F7010830A600A40DF70D2508C3
:1000400077020318F700F80DA60B1D2800342430A2
:1000500084008313000803193B280130F800F701DE
:10006000F70B3028F80B2F284A30F700F70B36280B
:100070003928800B2D2800342008A4000A30A50060
:1000800012207808A3002008A4000A30A50012203E
:100090007708A2000710871422080420F8008600C1
:1000A0000130A40027208710071423080420F8003B
:1000B00086000130A40027208A110A127F288401BB
:1000C00083131F308305831603170908C03989007D
:1000D00003131F129F120030031788008312870139
:1000E00088018901FF300313A100003083168600C8
:1000F00087008312A100A0014C30A0003C287E287C
:040100007C286300F4
:04400E00E12CFF3F63
:00000001FF
;PIC16F886
