:1000000000308A00082A00000A108A100A118207AC
:10001000313432343334343435343634373438349C
:1000200039342A34303423340A108A100A118207F2
:1000300028340C34013406340A108A100A1182075D
:100040002034203420344234493445344E3456343C
:1000500045344E34493444344F34533420342034FE
:1000600000340A108A100A118207203444344934BB
:1000700047344934543445342034203443344C34E8
:100080004134563445342034203400340A108A1068
:100090000A1182070C3400340A108A100A118207F0
:1000A000203443344C3441345634453420344334C2
:1000B0004F34523452344534433454344134203470
:1000C00000340A108A100A118207203443344C3459
:1000D000413456344534203449344E345634413456
:1000E0004C34493444344134203400348A110A12E7
:1000F0002F2A2F3084008313000803198D28013024
:10010000F800F701F70B8228F80B81284A30F70036
:10011000F70B88288B28800B7F280034360EF039A7
:10012000F7000F30060577048600000006149828B3
:10013000061000348610F0308316860083120615F0
:100140000000061400000608060E0F39B60006105F
:100150000000061400000608060E0F39B500061050
:100160000030831686008312360EF700F030F70554
:1001700077083504F8007808B500B51B9B28331CB8
:100180008610331886140000061100000610340E85
:10019000B5000F30B5053508B6008E2034080F398C
:1001A000B500B6008E20003400308316860083121E
:1001B0008610061106100F30AF0079200130AD0017
:1001C0002D08033C031CEC280330B6008E200530BC
:1001D000AF007920AD0AE0280230B6008E20AD01D4
:1001E0002D08033C031CFD282D081420AE00B3018C
:1001F0002E08B4009A20AD0AF0288A110A12302A7B
:10020000300B032906294030B1000729B101013024
:100210002F02B10731088038B200B3013208B400B0
:100220009A2000342E080C3A03191D29063A0319A6
:100230002529023A03192B293029B3010130B400D2
:100240009A200230AF00792036290130AF00023009
:10025000B00000213629B3011030B4009A203629AD
:100260000130B3002E08B4009A2036290034AD01C5
:10027000A00A2008213C0318B9292308031947299B
:10028000013A03194D29033A031953295929DE303C
:1002900083168600831286005929BE308316860095
:1002A0008312860059297E308316860083128600C9
:1002B0005929211C652906081E391E3C031D642985
:1002C00021102208AD00A201B82906081E391E3CE3
:1002D0000319B32906080239031D7029AE018429C8
:1002E00006080439031D77290130AE008429060869
:1002F0000839031D7E290230AE0084290608103912
:10030000031D84290330AE002E08AF000330B00077
:10031000F701F8012F0803103018F707F70CF80C55
:10032000B018F707F70CF80C3019F707F70CF80CB2
:10033000B019F707F70CF80C301AF707F70CF80CA0
:10034000B01AF707F70CF80C301BF707F70CF80C8E
:10035000B01BF707F70CF80C230878070420F80007
:10036000A2002114B829A30A2308033C0319A301FE
:10037000A001FE308316860083122D08F800003499
:1003800037217808A600A608031DCA293721780856
:10039000A600C329A6080319072A2608303C03191A
:1003A000AB012608313C031DD7290130AB002608DC
:1003B000323C031DDD290230AB002608333C031D0F
:1003C000E3290330AB002608343C031DE92904303F
:1003D000AB002608353C031DEF290530AB0026088D
:1003E000363C031DF5290630AB002608373C031DBB
:1003F000FB290730AB002608383C031D012A0830D2
:10040000AB002608393C031D072A0930AB00003435
:10041000840183131F308305831603170908C0392D
:10042000890003131F129F120030031788008312E4
:100430008701880189010313A0012110A201A301F2
:100440001030A500FF30AC000130831695008113F9
:10045000FF309500003087008312AC007628D42846
:1004600087010130AF00B0000021AD012D081C2034
:10047000003803193F2AAD0AAE001221362A013096
:10048000AF000230B0000021AD012D08312000384E
:1004900003194E2AAD0AAE001221452A0430AD00E0
:1004A000FA30AF007920AD0B502AC021AD012D08E4
:1004B000462000380319602AAD0AAE001221572ADF
:1004C0000130AF00B00000212608233C0319712A37
:1004D00026082A3C0319712A2A30AE0012212B0863
:1004E000AA00C0212608233C03197F2A26082A3C9B
:1004F00003197F2A2A30AE0012212B08A900C0213F
:100500002608233C03198D2A26082A3C03198D2A24
:100510002A30AE0012212B08A800C0212608233C57
:1005200003199B2A26082A3C03199B2A2A30AE006D
:1005300012212B08A700C0212608233C0319A22A58
:10054000C0219C2A2A0BD22A2908023C031DD22A48
:100550002808033C031DD22A2708043C031DD22A85
:10056000AD012D08462000380319BA2AAD0AAE00A5
:100570001221B12A0130AF00B0000021AD012D08D9
:100580004C2000380319C82AAD0AAE001221BF2A38
:1005900087170830AD00FA30AF007920AD0BCB2AB9
:1005A0008713F42AAD012D08462000380319DC2AF0
:1005B000AD0AAE001221D32A0130AF000230B000E4
:1005C0000021AD012D08612000380319EB2AAD0A86
:1005D000AE001221E22A07161030AD00FA30AF004B
:0C05E0007920AD0BEE2A0712312A6300CF
:04400E00F12CFF3F53
:00000001FF
;PIC16F886
