:1000000000308A0019280000223084008313000881
:10001000031918280130F800F701F70B0D28F80B29
:100020000C284A30F700F70B13281628800B0A28F3
:100030000034840183131F308305831603170908D6
:10004000C039890003131F129F1200300317880064
:10005000831287018801890100308316031386000B
:1000600083128601013086000230A100FA30A2001E
:100070000420A10B3628861B47280310860D02306A
:10008000A100FA30A2000420A10B41283B28A63091
:10009000F700F70B49280000061858280310860CB3
:1000A0000230A100FA30A2000420A10B52284C28F3
:0400B000322863008F
:04400E00E12CFF3F63
:00000001FF
;PIC16F886
